:100000000C9461000C9473000C9473000C947300B6
:100010000C9473000C9473000C9473000C94730094
:100020000C9473000C9473000C9473000C94730084
:100030000C9473000C9473000C9473000C94730074
:100040000C943C010C9473000C9473000C9473009A
:100050000C9473000C9473000C9473000C94730054
:100060000C9473000C94730000000000250028001D
:100070002B0000000000240027002A0000000000E0
:1000800023002600290004040404040404040202DA
:100090000202020203030303030301020408102007
:1000A0004080010204081020010204081020000012
:1000B0000008000201000003040700000000000027
:1000C000000011241FBECFEFD8E0DEBFCDBF21E07E
:1000D000A0E0B1E001C01D92A930B207E1F70E9493
:1000E00086010C9461020C940000833081F028F4A6
:1000F000813099F08230A9F008958730A9F08830D6
:10010000C9F08430B1F4809180008F7D03C080916C
:1001100080008F7780938000089584B58F7784BDA9
:10012000089584B58F7DFBCF8091B0008F77809349
:10013000B00008958091B0008F7DF9CF1F93CF93C9
:10014000DF93282F30E0F901E255FF4F8491F90148
:10015000E656FF4FD491F901EA57FF4FC491CC23E3
:10016000A9F0162F81110E947500EC2FF0E0EE0F20
:10017000FF1FE859FF4FA591B4918FB7F894EC9108
:10018000111108C0D095DE23DC938FBFDF91CF9192
:100190001F910895DE2BF8CF3FB7F89480910501A9
:1001A00090910601A0910701B091080126B5A89B86
:1001B00005C02F3F19F00196A11DB11D3FBFBA2FF9
:1001C000A92F982F8827BC01CD01620F711D811DB9
:1001D000911D42E0660F771F881F991F4A95D1F73E
:1001E00008958F929F92AF92BF92CF92DF92EF923B
:1001F000FF924B015C010E94CC006B017C010E94CC
:10020000CC006C197D098E099F09683E73408105F9
:100210009105A8F321E0821A9108A108B10888EE9F
:10022000C80E83E0D81EE11CF11C81149104A104C6
:10023000B10429F7FF90EF90DF90CF90BF90AF907F
:100240009F908F9008950F931F93CF93DF938C010E
:10025000C1E0D0E061E0802F0C171D0711F060E0D5
:100260008C2F0E949E002196C430D10599F7DF9112
:10027000CF911F910F9108951F920F920FB60F9279
:1002800011242F933F938F939F93AF93BF938091AC
:10029000010190910201A0910301B09104013091FC
:1002A000000123E0230F2D3758F50196A11DB11D44
:1002B000209300018093010190930201A093030118
:1002C000B09304018091050190910601A09107016E
:1002D000B09108010196A11DB11D80930501909375
:1002E0000601A0930701B0930801BF91AF919F91C0
:1002F0008F913F912F910F900FBE0F901F901895E7
:1003000026E8230F0296A11DB11DD2CF789484B5A3
:10031000826084BD84B5816084BD85B5826085BD01
:1003200085B5816085BD80916E00816080936E008F
:100330001092810080918100826080938100809181
:100340008100816080938100809180008160809332
:1003500080008091B10084608093B1008091B000F2
:1003600081608093B00080917A00846080937A00ED
:1003700080917A00826080937A0080917A00816017
:1003800080937A0080917A00806880937A0010923E
:10039000C10021E030E0F901E656FF4F4491F90138
:1003A000EA57FF4F8491882399F090E0880F991FB6
:1003B000FC01EE58FF4FA591B491FC01E859FF4FA5
:1003C000859194918FB7F894EC91E42BEC938FBFC7
:1003D0002F5F3F4F24303105F1F6CEE9D0E0FE012A
:1003E00024910AE810E0F80184918823C9F090E094
:1003F000880F991FFC01EE58FF4FA591B491FC01A5
:10040000E859FF4F459154913FB7F8949C91822F42
:10041000809598239C93FA019081892380833FBF24
:1004200092EBE92E90E0F92E20E0C22E20E0D22EB1
:1004300085E090E00E942301F7018491FE01A490E1
:10044000F801B490BB20B1F181110E947500EB2D31
:10045000F0E0EE0FFF1FE458FF4FA591B4918C918F
:10046000A82241F182E090E00E9423016CE271E059
:1004700080E090E00E94F10083E090E00E94230180
:1004800068EE73E080E090E00E94F10082E090E08E
:100490000E9423016CE271E080E090E00E94F10094
:1004A00081E090E00E94230168EE73E080E090E03C
:1004B0000E94F100C114D10409F4BACF0E940000D7
:0604C000B7CFF894FFCF56
:00000001FF
